:020000040000FA
:060000000A128A110C280F
:10000800FE00030EF4000A08F5000A168A110F29EB
:100018000A128A110F28831603130A128A11FB2762
:100028000A128A11E600831790308400B0300A164D
:100038008A1501260A128A11E001E101E201E301B1
:10004800E401E501F801F901FA01FB01FC01FD01F8
:1000580083010A128A1130280A168A157C270A1287
:100068008A114A3083160313AB007430AA00243077
:10007800A9000030A8004630AF001630AE000030AE
:10008800AD000030AC000A168A11BE250A128A118A
:100098008316031306140A168A1509260A128A11EA
:1000A8008316031301170B168B178B1207150530D0
:1000B800831203139700831603130C150B178B1762
:1000C8000A168A1578260A128A1183120313210840
:1000D80083160313DB00831203132008831603130C
:1000E800DA00C83083120313DD006A30DE0083169D
:1000F80003135B0883120313E000831603135A08E3
:1001080083120313DF000A168A1191200A128A113A
:10011800333083120313A1008030A2000A168A1517
:10012800C4260A128A11C83083120313A1000030B2
:10013800A2000A168A15C4260A128A110D300A125C
:100148008A1503200A128A11003083120313B000A3
:100158000030AF000330AE00FF30AD00831603134C
:100168005A0883120313A000831603135B08831233
:100178000313A100A201A3010030A7000030A600CC
:100188000830A5000230A4000A168A15B8270A12FA
:100198008A11831203132308B4002208B30021082C
:1001A800B2002008B1000A168A111C220A128A110C
:1001B800831203132D08DA3E83160313DE0083121D
:1001C80003132E080318013EFD3E83160313DF00B8
:1001D8005F0883120313AF00831603135E088312AC
:1001E8000313AE006430B0000030B1000A168A155F
:1001F8009D260A128A1183160313DF1B0429052979
:100208000A292030C0000030C1000E292D30C0005E
:100218000030C1004008C600DF1B13291429192922
:100228005F08D9005E08D80030295E0983120313DD
:10023800EE00831603135F0983120313EF00EE0A1F
:100248000319EF0A6E0883160313D80083120313E9
:100258006F0883160313D900C83083120313DD0017
:100268003E30DE0083160313460883120313EE00A4
:10027800EF016E08DF006F08E000E830A6000330E9
:10028800A70083160313590883120313A9008316C2
:100298000313580883120313A8000A168A11B721FA
:1002A8000A128A11831203132708E2002608E100C4
:1002B8000A30A6000030A7008316031359088312DA
:1002C8000313A30083160313580883120313A20011
:1002D800E830A0000330A1000A128A11A2270A12EE
:1002E8008A11831203132108A9002008A8000A16FE
:1002F8008A11B7210A128A11831203132708E4000E
:100308002608E3000A168A1191200A128A1176300B
:1003180083120313A1008030A2000A168A15C4268E
:100328000A128A11C83083120313A1000030A200F8
:100338000A168A15C4260A128A1156300A128A1514
:1003480003200A128A110D300A128A1503200A1294
:100358008A11003083120313B0000030AF0003305D
:10036800AE00FF30AD00831603135A08831203133F
:10037800A000831603135B0883120313A100A201D4
:10038800A3010030A7000030A6000830A500023005
:10039800A4000A168A15B8270A128A1183120313B1
:1003A8002308B4002208B3002108B2002008B100D5
:1003B8000A168A111C220A128A11831203132D08A5
:1003C800DA3E83160313DE00831203132E08031884
:1003D800013EFD3E83160313DF00DF1BF429F529D8
:1003E800FA292030C2000030C300FE292D30C20097
:1003F8000030C3004208C700DF1B032A042A092A69
:100408005F08C5005E08C400202A5E098312031332
:10041800EE00831603135F0983120313EF00EE0A3D
:100428000319EF0A6E0883160313C400831203131B
:100438006F0883160313C500C83083120313DD0049
:100448006130DE0083160313470883120313EE009E
:10045800EF016E08DF006F08E0000A30A6000030E8
:10046800A70083160313450883120313A9008316F4
:100478000313440883120313A8000A168A11B7212C
:100488000A128A11831203132708E2002608E100E2
:100498000A168A1191200A128A1150308312031306
:1004A800A1008030A2000A168A15C4260A128A11F1
:1004B800C83083120313A1000030A2000A168A155F
:1004C800C4260A128A1143300A128A1503200A1216
:1004D8008A110D300A128A1503200A128A11013076
:1004E80083120313A1008030A2000A168A15C426BD
:1004F8000A128A110D300A128A1503200A128A116B
:100508000A168A1534260A128A118312031321083F
:1005180083160313D70083120313200883160313CB
:10052800D600C83083120313DD006A30DE0083165C
:100538000313570883120313E000831603135608A6
:1005480083120313DF000A168A1191200A128A11F6
:10055800283083120313A1008030A2000A168A15DE
:10056800C4260A128A11C83083120313A10000306E
:10057800A2000A168A15C4260A128A110D300A1218
:100588008A1503200A128A11003083120313B0005F
:100598000030AF000330AE00FF30AD008316031308
:1005A800560883120313A0008316031357088312F7
:1005B8000313A100A201A3010030A7000030A60088
:1005C8001330A5008830A4000A168A15B8270A1225
:1005D8008A11831203132308B4002208B3002108E8
:1005E800B2002008B1000A168A111C220A128A11C8
:1005F800831203132E0883160313DD0083120313DB
:100608002D0883160313DC00E83083120313A600B9
:100618000330A700831603135D0883120313A90090
:10062800831603135C0883120313A8000A168A11A1
:10063800B7210A128A11831203132708AF0026086C
:10064800AE006430B0000030B1000A168A159D264D
:100658000A128A11831203132F0883160313BF008B
:10066800831203132E0883160313BE00053083126A
:100678000313A6000030A700831603133F08831254
:100688000313A900831603133E0883120313A8005B
:100698000A168A11B7210A128A118312031327082E
:1006A80083160313BD00831203132608831603134E
:1006B800BC00C83083120313DD004030DE00E83090
:1006C800A6000330A700831603135D0883120313E3
:1006D800A900831603135C0883120313A8000A16E3
:1006E8008A11B7210A128A11831203132708E0001E
:1006F8002608DF000A30A6000030A700831603137F
:100708005D0883120313A300831603135C08831286
:100718000313A200E830A0000330A1000A128A11D6
:10072800A2270A128A11831203132108A90020089C
:10073800A8000A168A11B7210A128A118312031314
:100748002708E2002608E1000A168A1191200A12F9
:100758008A11763083120313A1008030A2000A1692
:100768008A15C4260A128A11C83083120313A100FD
:100778000030A2000A168A15C4260A128A115630B9
:100788000A128A1503200A128A110D300A128A15D4
:1007980003200A128A11C83083120313DD00633064
:1007A800DE00831603133D0883120313E00083164B
:1007B80003133C0883120313DF000A168A119120E1
:1007C8000A128A115C3083120313A1008030A20040
:1007D8000A168A15C4260A128A11C830831203130E
:1007E800A1000030A2000A168A15C4260A128A112E
:1007F80025300A128A1503200A128A110D300A12AE
:100808008A1503200A128A11013083120313A100EA
:100818008030A2000A168A15C4260A128A110D30E1
:100828000A128A1503200A128A117D0803191D2C41
:100838001E2C6428FD01831603136408650403193C
:10084800262C272C6428640883120313A00083161F
:100858000313650883120313A100A201A30100304A
:10086800A7000F30A6004230A5004030A4000A16A9
:100878008A1185240A128A11831203132308831606
:100888000313D50083120313220883160313D4001D
:1008980083120313210883160313D300831203134F
:1008A800200883160313D200C83083120313DD0017
:1008B8006E30DE0083160313550883120313E2001B
:1008C80083160313540883120313E10083160313DA
:1008D800530883120313E00083160313520883128C
:1008E8000313DF000A168A1191200A128A11483070
:1008F80083120313A1008030A2000A168A15C426A9
:100908000A128A11C83083120313A1000030A20012
:100918000A168A15C4260A128A1172308312031322
:10092800A1008030A2000A168A15C4260A128A116C
:100938000D300A128A1503200A128A11C830831250
:100948000313DD007930DE00831603136508831274
:100958000313E00083160313640883120313DF00F4
:100968000A168A1191200A128A111230831203136F
:10097800A1008030A2000A168A15C4260A128A111C
:10098800C83083120313A1000030A2000A168A158A
:10099800C4260A128A11663083120313A10080301C
:1009A800A2000A168A15C4260A128A110D300A12E4
:1009B8008A1503200A128A11003083120313B0002B
:1009C8000030AF000030AE003030AD0083160313A6
:1009D800550883120313B4008316031354088312B3
:1009E8000313B30083160313530883120313B200CF
:1009F80083160313520883120313B1000A168A11CF
:100A08001C220A128A118312031330088316031357
:100A1800B700831203132F0883160313B60083123B
:100A280003132E0883160313B500831203132D082E
:100A380083160313B400370883120313A300831625
:100A48000313360883120313A20083160313350811
:100A580083120313A10083160313340883120313AC
:100A6800A00000300A168A116E260A128A11831213
:100A780003132308B5002208B4002108B300200896
:100A8800B2004030B100D930B0002530AF009A3004
:100A9800AE000A128A15BE240A128A1183120313A1
:100AA8003108CB003008CA002F08C9002E08C8003A
:100AB8000A168A11F5220A128A11831203134B08A7
:100AC80083160313BB00831203134A088316031308
:100AD800BA0083120313490883160313B90083125B
:100AE8000313480883160313B800C830831203138E
:100AF800DD006330DE00831603133B088312031303
:100B0800E200831603133A0883120313E1008316E5
:100B18000313390883120313E000831603133808FC
:100B280083120313DF000A168A1191200A128A1110
:100B38001D3083120313A1008030A2000A168A1503
:100B4800C4260A128A11C83083120313A100003088
:100B5800A2000A168A15C4260A128A115630831270
:100B68000313A1008030A2000A168A15C4260A12AF
:100B78008A110D300A128A1503200A128A110130CF
:100B880083120313A1008030A2000A168A15C42616
:100B98000A128A110D300A128A1503200A128A11C4
:100BA80064280A128A110C28831203134F08D900EB
:100BB8008030D9054F08D0005007E000CE1FE52D42
:100BC800E62DE72D601460080319EB2DEC2DFC2DA4
:100BD800600A031DF02DF12DF92D0030CF000030F3
:100BE800CE000030CD000030CC00CE17CF01042E4F
:100BF8000030CF000030CE000030CD000030CC00F7
:100C08004B088039D9064B08D0005007E100CA1FAD
:100C18000E2E0F2E102E611461080319142E152E96
:100C2800252E610A031D192E1A2E222E0030CB0004
:100C38000030CA000030C9000030C800CA17CB0114
:100C48002D2E0030CB000030CA000030C900003023
:100C5800C8004B084A0449044804031D342E352EA5
:100C68004C2E0030CF000030CE000030CD000030D8
:100C7800CC008030CE047F30CF045908CF044F0811
:100C8800CB004E08CA004D08C9004C08C800A12F67
:100C98006008031D502E512E5A2E0030CB00003014
:100CA800CA000030C9000030C800A12F6008D00079
:100CB800D1015108D30061085002D200031CD303AC
:100CC80052087F3EDA0053080318013E003EDB005D
:100CD8004F08D8004E08D7004D08D6004C08D5005C
:100CE8000030CF000030CE000030CD000030CC0006
:100CF8000030DF000030DE000030DD000030DC00B6
:100D0800E101CE2E610803198A2E8B2EAB2E0130FD
:100D1800D0000310D50DD60DD70DD80DD00B8D2EC4
:100D28000130D0000310CC0DCD0DCE0DCF0DD00B62
:100D3800962EDF1FA02EA12EA22E4C140130D0001B
:100D48000310DC0DDD0DDE0DDF0DD00BA42E4B08DE
:100D58005802031DB92E4A085702031DB92E490827
:100D68005602031DB92E48085502031CBC2EBD2E81
:100D7800CC2E5F174808D5024908031C490FD60234
:100D88004A08031C4A0FD7024B08031C4B0FD80212
:100D98000130E1071A306102031CD32ED42E862EAF
:100DA80058085704560455040319DB2EDC2EFB2E75
:100DB8005C14FB2E0130D0000310CC0DCD0DCE0DF0
:100DC800CF0DD00BE02EDF1FEA2EEB2EEC2E4C14AD
:100DD8000130D0000310DC0DDD0DDE0DDF0DD00B72
:100DE800EE2EFF30DA070318DB0AFF30DB07CE1FD1
:100DF800FE2EFF2EDE2EE101DF1F032F042F202FF2
:100E0800FF305C05D000FF305D05D100FF305E0586
:100E1800D2007F305F05D3005308520451045004B8
:100E28000319172F182F1B2F0130E100202F4C1CFE
:100E38001E2F1F2F202F182F61080319242F252F4D
:100E4800562F0130CC07003003180130CD07003091
:100E580003180130CE07003003180130CF074F1CAC
:100E6800362F372F562F4C08D0004D08D1004E088A
:100E7800D2004F08D3000130D400530DD30CD20C4C
:100E8800D10CD00CD40B412F5308CF005208CE0000
:100E98005108CD005008CC000130DA070318DB0AEE
:100EA8000030DB075B08803AFF0080307F02031DBB
:100EB8005F2FFF305A02031C622F632F712FFF3000
:100EC80083120313DA000030DB000030CF0000305B
:100ED800CE000030CD000030CC00831203135B0835
:100EE800803AFF0080307F02031D7C2F01305A02B8
:100EF80003187F2F802F8D2F83120313DA01DB0154
:100F08000030CF000030CE000030CD000030CC00E3
:100F1800D901831203135A08E000601C942F952FFF
:100F2800972FCE17992F7F30CE056008D000031079
:100F3800500CCF005908CF04432E08008312031326
:100F4800A501A31FA82FA92FB02FA209A309A20AA0
:100F58000319A30A0130A500A11FB32FB42FB92F7D
:100F6800A009A109A00A0319A10A2008210403194C
:100F7800BE2FBF2FEC2F0130A400CB2F0130031060
:100F8800A00DA10DFF3E031DC32F0130A407A11F13
:100F9800CE2FCF2FC22F21082302031DD52F2008C3
:100FA8002202031CD82FD92FDF2F2008A2022108E4
:100FB800031CA303A30201300310A10CA00CFF3EE5
:100FC800031DE02F0130A402031DEB2FEC2FCF2FC0
:100FD80025080319F02FF12FF62FA209A309A20A59
:100FE8000319A30A2308A1002208A000080001345D
:020FF8000800EF
:1010060083120313A0000C1E09280A2806282008AC
:101016009900080083120313B701B801340884004D
:101026008313000884000A168A110A200A128A15F8
:101036002A3A031D1F2820284E2834088400013030
:101046008007350884000008FF00023080077F080B
:1010560084000008B700840A0008B8005F28380832
:10106600AF003708AE000A30B0000030B1000A16F3
:101076008A159D260A128A158312031336082E072F
:10108600B7000030031801302F07B8003408840079
:1010960001308313800734088400000884000A1690
:1010A6008A110A200A128A15D03EB6000A30360284
:1010B600031C5E285F2832283808B5003708B400BC
:1010C6000800831203134D0884008313000884006C
:1010D6000A168A110A200A128A15253A031D74284F
:1010E6007528D2294D08840001308007F801F901DE
:1010F6000030FC00FF3083160313E000FF30E100F0
:1011060083120313D1019D28FC144D08840001307D
:1011160080079D280130D1009D284D0884000008D5
:1011260084000A168A110A200A128A15303A03190F
:1011360087288D2851080319A128A22890284D0830
:10114600B4004E08B5000A128A150D200A128A1537
:10115600831203133508F9003408F800F91FB42880
:10116600B528BB287C14F809F909F80A0319F90A05
:101176004D0884008313000884000A168A110A2089
:101186000A128A15633A031DC928CA28E4284D089D
:101196008400013080074E0884000008FF000230FA
:1011A60080077F0884000008D6004B08AD004C0875
:1011B600AE005608AF000A168A1182220A128A1554
:1011C600EB294D0884000008D700570884000A164A
:1011D6008A110A200A128A15D600F9280130D70783
:1011E60007296930D6000729D60107295608643A27
:1011F6000319F4280D3A0319F428053A0319F128BE
:10120600193A0319F428F728570884000A168A1190
:101216000A200A128A15643A0319122913294B293E
:10122600570884000A168A110A200A128A15693A92
:10123600031D1E291F296A294B294E088400000810
:10124600FF00023080077F0884000008CF00840A70
:101256000008D0004F08D2005008D3000030D31B3E
:10126600FF30D400D50053294E0884000008FF0043
:10127600043080077F0884000008D200840A000832
:10128600D300840A0008D400840A0008D500532934
:101296005608693A03192029053A031937295329AB
:1012A6004D0884005708013E80004B08BD004C08DD
:1012B600BE005508C2005408C1005308C0005208B9
:1012C600BF000A168A1124270A128A15EB29570825
:1012D60084000A168A110A200A128A15753A031D15
:1012E60075297629CA299F294E0884000008FF001F
:1012F600023080077F0884000008CF00840A0008B7
:10130600D0004F08D2005008D300D401D501A72938
:101316004E0884000008FF00043080077F08840020
:101326000008D200840A0008D300840A0008D4000A
:10133600840A0008D500A7295608693A03197729AF
:10134600053A03198B29A7294D0884005708013E41
:101356008000BF294B08BD004C08BE005508C200DE
:101366005408C1005308C0005208BF000A168A116B
:10137600F0230A128A15EB29570884000A168A11E7
:101386000A200A128A15753A0319AD29CA29831249
:1013960003134D088400013083138007EB294D08A1
:1013A6008400000884000A168A110A200A128A1587
:1013B600CF00D0014F08A0005008A1004B08A200A2
:1013C6004C08A3000A168A111E250A128A15CA2974
:1013D6000800831203136508EA008030EA056508F1
:1013E60083160313A000200783120313EC00E41FE7
:1013F600FD29FE29FF296C146C080319032A042A07
:10140600142A6C0A031D082A092A112A0030E5004D
:101416000030E4000030E3000030E200E417E501AC
:101426001C2A0030E5000030E4000030E300003004
:10143600E2006908EB008030EB056B086A060319C9
:10144600252A262A272A6A17690883160313A00065
:10145600200783120313EB00E81F322A332A342AAB
:101466006B146B080319382A392A492A6B0A031D9B
:101476003D2A3E2A462A0030E9000030E8000030C6
:10148600E7000030E600E817E901512A0030E900DC
:101496000030E8000030E7000030E6006C086B0220
:1014A6000318562A572A7B2A6A1F5A2A5B2A5D2A5C
:1014B6008030EA066C08ED006B08EC006D08EB0066
:1014C6006208ED006608E2006D08E6006308ED00BC
:1014D6006708E3006D08E7006408ED006808E400AB
:1014E6006D08E8006508ED006908E5006D08E9008B
:1014F600ED016B0883160313A000A1012108A300C8
:10150600831203136C08831603132002A200031C24
:10151600A3032308803AFF0080307F02031D952A2B
:101526001A302202031C982A992ADA2A83120313F4
:101536006508640463046204031DA22AA42A013018
:10154600A52A0030ED000030E5000030E400003050
:10155600E3000030E2006B08EC00E22A6D1CB42ABE
:10156600B52AC02A6D0883160313A0000310200CA9
:10157600013883120313ED00C22A0310ED0C621C1E
:10158600C52AC62AC72AED17013083160313A00001
:1015960083120313650DE50CE40CE30CE20C8316D1
:1015A6000313A00BCB2A013083120313EC0783121B
:1015B60003136B086C02031CE12AE22AB12A6A1B98
:1015C600E52AE62A392B6C08031DEA2AEB2AF42AB7
:1015D6000030E5000030E4000030E3000030E200B7
:1015E600BD2C6608E207670803110318013E0319BC
:1015F600FD2AE307680803110318013E0319042BAB
:10160600E407690803110318013E03190B2BE507CC
:10161600651C0E2B0F2B292C6D1C122B132B1E2B2E
:101626006D0883160313A0000310200C01388312E3
:101636000313ED00202B0310ED0C621C232B242B2F
:10164600252BED17013083160313A0008312031315
:10165600650DE50CE40CE30CE20C83160313A00BFA
:10166600292B013083120313EC07292C6508803AD5
:10167600FF006908803A7F02031D4B2B680864024D
:10168600031D4B2B67086302031D4B2B6608620282
:1016960003184E2B4F2BDA2BFF3083160313A000B3
:1016A600FF30A100FF30A200FF30A3008312031316
:1016B600660883160313A4008312031367088316B0
:1016C6000313A50083120313680883160313A600E9
:1016D60083120313690883160313A70083120313E7
:1016E600620883160313A402831203136308031C00
:1016F600630F7E2B812B83160313A502831203131C
:101706006408031C640F882B8B2B83160313A60215
:10171600831203136508031C650F922B952B831602
:101726000313A70283120313831603132408A007C7
:1017360025080318250FA02BA12BA107260803189F
:10174600260FA62BA72BA20727080318270AA307ED
:10175600230883120313E50083160313220883125A
:101766000313E40083160313210883120313E30013
:1017760083160313200883120313E2008030EA065F
:101786006D03FF3AED006D08031DCA2BCB2BE82B2A
:101796000130E207003003180130E3070030031878
:1017A6000130E407003003180130E507E82B66082E
:1017B600E2026708031C670FE3026808031C680F50
:1017C600E4026908031C690FE50265086404630402
:1017D6006204031DEF2BF02B252C6D08031DF42B43
:1017E600F52B252C0030E5000030E4000030E30046
:1017F6000030E200BD2C013083160313A000031055
:1018060083120313E20DE30DE40DE50D83160313B6
:10181600A00B022C83120313ED1F122C132C142C75
:1018260062146D1C172C182C1C2C03146D0DED0066
:101836001E2C0310ED0D6C080319222C232C252CCD
:101846000130EC02E41F282C292CFE2BEB01ED1FA6
:101856002D2C2E2C3C2C6D087F390319332C342C5F
:10186600372C0130EB003C2C621C3A2C3B2C3C2CD8
:10187600342C6B080319402C412C8F2C0130E207C5
:10188600003003180130E307003003180130E40785
:10189600003003180130E507651C522C532C8F2CA1
:1018A600620883160313A0008312031363088316CA
:1018B6000313A10083120313640883160313A20003
:1018C60083120313650883160313A3000130A400D3
:1018D600230DA30CA20CA10CA00CA40B6B2C2308AB
:1018E60083120313E50083160313220883120313DE
:1018F600E40083160313210883120313E3008316FF
:101906000313200883120313E2006C0A03198C2CBC
:101916008D2C8F2C0130EC076C0A0319932C942C18
:10192600992C6C08031D982C992CA72C0030E500E7
:101936000030E4000030E3000030E2006C08031DD4
:10194600A52CA62CA72CEA016C1CAA2CAB2CAD2C22
:10195600E417AF2C7F30E4056C0883160313A00050
:101966000310200C83120313E500EA1FBB2CBC2CCA
:10197600BD2CE5170800831203133108BB00803025
:10198600BB053108B6003607C100B01FCB2CCC2CE6
:10199600CD2C411441080319D12CD22CE12C410A3B
:1019A600031DD62CD72CDF2C0030B1000030B00040
:1019B6000030AF000030AE00B017E92C0030B100A7
:1019C6000030B0000030AF000030AE00350880397E
:1019D600BB063508B6003607C000B41FF32CF42C3E
:1019E600F52C401440080319F92CFA2C092D400A4D
:1019F600031DFE2CFF2C072D0030B5000030B4006F
:101A06000030B3000030B200B417112D0030B5001D
:101A16000030B4000030B3000030B20040080319B3
:101A2600152D162D1B2D4108031D1A2D1B2D242D9A
:101A36000030B1000030B0000030AF000030AE0022
:101A4600FF2F2E08A00034080A168A15EC260A1263
:101A56008A15831203132108C7002008C60046080A
:101A6600B600B701B801B9013908BF003808BE0091
:101A76003708BD003608BC004708B600B701B801F4
:101A8600B9013908C5003808C4003708C30036084C
:101A9600C2002F08A00033080A168A15EC260A127F
:101AA6008A15831203132108C7002008C6004608BA
:101AB600B600B701B801B9013608BC0737080311EB
:101AC6000318013E0319682DBD07380803110318D2
:101AD600013E03196F2DBE07390803110318013E95
:101AE6000319762DBF074708B600B701B801B9013B
:101AF6003608C207370803110318013E0319842D5F
:101B0600C307380803110318013E03198B2DC407B8
:101B1600390803110318013E0319922DC507300831
:101B2600A00032080A168A15EC260A128A158312B4
:101B360003132108C7002008C6004608B600B701EF
:101B4600B801B9013608BC07370803110318013E6E
:101B56000319AE2DBD07380803110318013E0319FA
:101B6600B52DBE07390803110318013E0319BC2D14
:101B7600BF074708B600B701B801B9013608C20762
:101B8600370803110318013E0319CA2DC307380885
:101B960003110318013E0319D12DC4073908031197
:101BA6000318013E0319D82DC5070830B6000310E7
:101BB600BC0DBD0DBE0DBF0DB60BDA2D2F08A00056
:101BC60032080A168A15EC260A128A15831203139E
:101BD6002108C7002008C6004608B6004708B70017
:101BE600B801B9013608BC07370803110318013ECE
:101BF6000319FE2DBD07380803110318013E03190A
:101C0600052EBE07390803110318013E03190C2ED1
:101C1600BF072E08A00033080A168A15EC260A12FA
:101C26008A15831203132108C7002008C600460838
:101C3600B6004708B700B801B9013608BC0737082F
:101C460003110318013E0319292EBD073808031195
:101C56000318013E0319302EBE0739080311031875
:101C6600013E0319372EBF070830B6000310BC0D1E
:101C7600BD0DBE0DBF0DB60B392E2E08A0003208C5
:101C86000A168A15EC260A128A15831203132108EE
:101C9600C7002008C6004608B6004708B700B801C6
:101CA600B9013608BC07370803110318013E0319AA
:101CB6005D2EBD07380803110318013E0319642E73
:101CC600BE07390803110318013E03196B2EBF071F
:101CD6002F08A00034080A168A15EC260A128A155F
:101CE600831203132108C7002008C6004608B60061
:101CF6004708B700B801B9013608C207370803110B
:101D06000318013E0319882EC30738080311031868
:101D1600013E03198F2EC407390803110318013E2B
:101D26000319962EC5073008A00033080A168A152F
:101D3600EC260A128A15831203132108C70020080D
:101D4600C6004608B6004708B700B801B90136080C
:101D5600C207370803110318013E0319B32EC30740
:101D6600380803110318013E0319BA2EC4073908AF
:101D760003110318013E0319C12EC5073008A00040
:101D860034080A168A15EC260A128A1583120313DA
:101D96002108C7002008C6004608B6004708B70055
:101DA600B801B90108300310B60DB70DB80DB90D5D
:101DB600FF3E031DD62E3608C20737080311031847
:101DC600013E0319E72EC307380803110318013E25
:101DD6000319EE2EC407390803110318013E03192F
:101DE600F52EC5073C08B6003D08B7003E08B8000A
:101DF6003F08B90018300310B90CB80CB70CB60C74
:101E0600FF3E031DFE2E3608C207370803110318CE
:101E1600013E03190F2FC307380803110318013EAB
:101E26000319162FC407390803110318013E0319B5
:101E36001D2FC5070830B6000310BC0DBD0DBE0D25
:101E4600BF0DB60B1F2F41084007B600B701B70DEF
:101E56003608823EC60037080318013EFF3EC7001B
:101E6600512F0130B6000310C20DC30DC40DC50DB0
:101E7600B60B362FBF1F402F412F422F4214013081
:101E8600B6000310BC0DBD0DBE0DBF0DB60B442F25
:101E9600FF30C6070318C70AFF30C707C41F542FF1
:101EA600552F342FC001BF1F592F5A2F762FFF30C1
:101EB6003C05B600FF303D05B700FF303E05B800D3
:101EC6007F303F05B9003908380437043604031952
:101ED6006D2F6E2F712F0130C000762F421C742F8C
:101EE600752F762F6E2F400803197A2F7B2FAC2F74
:101EF6000130C207003003180130C3070030031851
:101F06000130C407003003180130C507451C8C2F6B
:101F16008D2FAC2F4208B6004308B7004408B8001E
:101F26004508B9000130BA00390DB90CB80CB70C28
:101F3600B60CBA0B972F3908C5003808C400370805
:101F4600C3003608C2000130C6070318C70A0030AE
:101F5600C7074708803AFF0080307F02031DB52F70
:101F6600FF304602031CB82FB92FC42F7F308312CF
:101F76000313C5008030C4000030C3000030C20027
:101F8600F52F831203134708803AFF0080307F0243
:101F9600031DCF2F013046020318D22FD32FDF2F78
:101FA600003083120313C5000030C4000030C300A4
:101FB6000030C200BB01F52F831203134608C1008F
:101FC600FF30C205FF30C3057F30C4050030C505AC
:101FD600411CEE2FEF2FF02FC4174108B600031057
:101FE600360CC5003B08C5044508B1004408B000DE
:101FF6004308AF004208AE000800FF1B0A288313FF
:102006007F1883170008840A0319FF0A0800103096
:102016008A000408840A820700342D342D342D34B6
:102026002D342D342D342D342D342D342D342D34A2
:102036002D342D342D342D342D3400347034653444
:10204600723469346F346434653420343D3420345A
:1020560000345634693474346534733473346534F7
:1020660020343D3420340034413444344334323453
:10207600283441344E34303429343D34003441342C
:10208600443443343134283441344E3434342934DE
:102096003D34003425346334253464342E342534F9
:1020A6003034323464340034663472346534713416
:1020B60020343D3420340034743465346D34703447
:1020C6003D34003420344B346D342F3468340034BE
:1020D60070346F3474343D3400342534633425341D
:1020E6006434003420347534733400342534343485
:1020F6007534003425346C34753400342034483457
:102106007A34003456343D34003425347534003482
:102122005F3083160313A000831203135D08831626
:102132000313A1000030A200A301A401AA01AB0174
:10214200A13083120313D8000030D9005E08DA00F0
:10215200A030DB000A168A1555260A168A11831644
:1021620003132308831203135D07E5006508840047
:102172008313800108007C1CBF28C028CD2883124D
:1021820003133708AD003508AE003608AF000A1653
:102192008A1515270A168A1183120313B91FD2282A
:1021A200D328D528B801B901BB01BC01EF282030E2
:1021B20083120313A0000030A1003508A2003608E4
:1021C200A3000A168A111E250A168A1101308312EB
:1021D2000313BB070318BC0A0030BC073C08803A53
:1021E200BA003908803A3A02031DF92838083B023E
:1021F200031CFC28FD28D8287C18002901290E2957
:10220200831203133708AD003508AE003608AF005D
:102212000A168A1515270A168A1108008312031353
:102222000C1D142915295C290C111608F700150834
:10223200F60083160313660803192029212927298A
:102242007708E3007608E200E6015C297708FB00E4
:102252007608FA0063087B02031D312962087A02BC
:102262000318342935294C296308F1006208F0006B
:10227200F009F1097A087007F2007B0803187B0A5B
:102282007107F3007208013EE40073080318013E6F
:10229200003EE500542962087A02E4006308031C48
:1022A200630A7B02E5007B08E3007A08E200013062
:1022B200E6000130FD0075088A00740E8300FE0EF0
:1022C2007E0E090083120313230822042104200432
:1022D20003196C296D29AE290130A9007B2901302F
:1022E200A8000310A00DA10DA20DA30DA80B722929
:1022F2000130A907A31F7E297F29702923082702FD
:10230200031D8D2922082602031D8D29210825027D
:10231200031D8D2920082402031C902991299F293D
:102322002008A4022108031C210FA5022208031C75
:10233200220FA6022308031C230FA7020130031059
:10234200A30CA20CA10CA00CFF3E031DA02901307E
:10235200A902031DAD29AE297F292708A30026085B
:10236200A2002508A1002408A0000800831203137C
:10237200AB01A71FBD29BE29C529A609A709A60A1F
:102382000319A70A0130AB00A91FC829C929D029FE
:10239200A809A909A80A0319A90A0130AB06AC01C8
:1023A200AD01260827040319D729D8290D2A01309F
:1023B200AA00E42901300310A60DA70DFF3E031D5C
:1023C200DC290130AA07A71FE729E829DB29013008
:1023D2000310AC0DAD0DFF3E031DE92927082902AC
:1023E200031DF52926082802031CF829F929002AC9
:1023F2002608A8022708031CA903A9022C140130ED
:102402000310A70CA60CFF3E031D012A0130AA02ED
:10241200031D0C2A0D2AE8292B080319112A122A56
:10242200172AAC09AD09AC0A0319AD0A2D08A70099
:102432002C08A6000800003083120313B9000030F4
:10244200B8000030B7000030B60030082F042E0468
:102452002D0403192D2A2E2A792A0130BA003C2A8A
:102462000130B5000310AD0DAE0DAF0DB00DB50BC3
:10247200332A0130BA07B01F3F2A402A312A0130DD
:10248200B5000310B60DB70DB80DB90DB50B422A44
:1024920030083402031D572A2F083302031D572A1E
:1024A2002E083202031D572A2D083102031C5A2A14
:1024B2005B2A6A2A2D08B1022E08031C2E0FB202D3
:1024C2002F08031C2F0FB3023008031C300FB40275
:1024D200361401300310B00CAF0CAE0CAD0CFF3E45
:1024E200031D6B2A0130BA02031D782A792A402A79
:1024F2003908B0003808AF003708AE003608AD0022
:10250200080078087904031D872A882A8F2A790807
:1025120083120313B5007808B400992A7808FF3EA5
:1025220083120313B40079080318013EFF3EB5007D
:102532007C1C9C2A9D2AAD2A2F08B000B1013008CC
:10254200A0003108A1002D08A2002E08A3000A163F
:102552008A111E250A168A1183120313B51BB22A89
:10256200B32AB42AB62AB401B501B201B301D02A02
:10257200203083120313A0000030A1002D08A20016
:102582002E08A3000A168A111E250A168A11013086
:1025920083120313B2070318B30A0030B3073308D8
:1025A200803AB0003508803A3002031DDA2A340836
:1025B2003202031CDD2ADE2AB92A7C18E12AE22A29
:1025C200F42A831203132F08B000B1013008A000CF
:1025D2003108A1002D08A2002E08A3000A168A11B4
:1025E2001E250A168A1108000310831203134A0DCE
:1025F2004B0DD1005108031DFF2A002B092B00307F
:10260200CB000030CA000030C9000030C8006A2B7D
:102612004808CC004908CD004A08CE004B08CF003C
:102622001F300310CF0CCE0CCD0CCC0CFF3E031D83
:10263200122B4C08D000CA17FF30C805FF30C9055D
:10264200FF30CA050030CB059630D102D11F2A2BAC
:102652002B2B432B5108803A973E0318312B322BF8
:10266200332B002B01300310CB0CCA0CC90CC80C45
:10267200FF3E031D342B0130D107031D412B422B9A
:10268200332B5A2B20305102031C482B492B552B3C
:10269200002B0130CC000310C80DC90DCA0DCB0DA3
:1026A200CC0B4C2B0130D1025108031D592B5A2B54
:1026B2004A2B500803195E2B5F2B6A2BC809C909E4
:1026C200CA09CB09C80A0319C90A0319CA0A031994
:1026D200CB0A080083120313AA01A71F712B722BC6
:1026E2007F2BA409A509A609A709A40A0319A50A0B
:1026F2000319A60A0319A70A0130AA00A31F822BF5
:10270200832B8E2BA009A109A209A309A00A0319F0
:10271200A10A0319A20A0319A30A23082204210405
:1027220020040319952B962BD72B0130A900A42B3B
:102732000130A8000310A00DA10DA20DA30DA80B3E
:102742009B2B0130A907A31FA72BA82B992B23088A
:102752002702031DB62B22082602031DB62B2108D1
:102762002502031DB62B20082402031CB92BBA2B09
:10277200C82B2008A4022108031C210FA50222084D
:10278200031C220FA6022308031C230FA7020130F9
:102792000310A30CA20CA10CA00CFF3E031DC92B1D
:1027A2000130A902031DD62BD72BA82B2A08031907
:1027B200DB2BDC2BE72BA409A509A609A709A40A90
:1027C2000319A50A0319A60A0319A70A2708A300D1
:1027D2002608A2002508A1002408A0000800013054
:1027E20083120313C3007908C5007808C4001F30A0
:1027F200C6000030C70083160317AF014C2CFF3010
:1028020083120313C6070318C70AFF30C707460817
:10281200903E84000030A3000030A2000030A100EE
:102822000A30A0004208A7004108A6004008A500FF
:102832003F08A4000A168A1163210A168A1183121C
:1028420003132008303E83178000C301FF30C40702
:102852000318C50AFF30C5070030B0000030AF00D2
:102862000030AE000A30AD004208B4004108B300A7
:102872004008B2003F08B1000A168A111C220A164B
:102882008A11831203133008C2002F08C1002E08D8
:10289200C0002D08BF008312031346084704031922
:1028A200532C542C722C4208410440043F04031D53
:1028B2005B2C5C2C002C4308031D602C612C002C2B
:1028C2004508803AFF0080307F02031D6A2C0130E8
:1028D2004402031C6D2C6E2C722CFC18712C722C71
:1028E200002C831203133D08B5003E08B6004608CB
:1028F200903EB7004508B9004408B8000A168A118C
:10290200BC200A168A11080083120313AA01A31F0E
:102912008B2C8C2C992CA009A109A209A309A00A2D
:102922000319A10A0319A20A0319A30A0130AA0072
:10293200A71F9C2C9D2CAA2CA409A509A609A709AE
:10294200A40A0319A50A0319A60A0319A70A013042
:10295200AA060030AE000030AD000030AC000030FE
:10296200AB0023082204210420040319B92CBA2C39
:10297200052D0130A900C82C0130A8000310A00DBC
:10298200A10DA20DA30DA80BBF2C0130A907A31FF7
:10299200CB2CCC2CBD2C0130A8000310AB0DAC0D00
:1029A200AD0DAE0DA80BCE2C23082702031DE32C80
:1029B20022082602031DE32C21082502031DE32C15
:1029C20020082402031CE62CE72CF62C2008A40283
:1029D2002108031C210FA5022208031C220FA602B4
:1029E2002308031C230FA7022B1401300310A30C8E
:1029F200A20CA10CA00CFF3E031DF72C0130A90272
:102A0200031D042D052DCC2C2A080319092D0A2D8E
:102A1200152DAB09AC09AD09AE09AB0A0319AC0A15
:102A22000319AD0A0319AE0A2E08A3002D08A2004D
:102A32002C08A1002B08A00008008312031322080F
:102A420023040319252D262D2C2D22082304031DD2
:102A52002B2D2C2D332D20080A128A11FC270A1641
:102A62008A11BD2D2208093EA40023080318013E45
:102A7200003EA500240884008317251C8313000848
:102A8200A600840A0008A7002608270403194A2D75
:102A92004B2D7D2D2208093EA40023080318013E78
:102AA200003EA500240884008317251C8313000818
:102AB200A600840A0008A7002208023EA8002308F4
:102AC2000318013E003EA900280884008317291C30
:102AD20083130008AA00840A0008AB002B08803A7E
:102AE200AC002708803A2C02031D792D26082A0201
:102AF20003187C2D7D2DBD2D831203132208840023
:102B02008317231C83130008A400840A0008A5006D
:102B12002208023EA60023080318013E003EA70039
:102B2200260884008317271C831300082407A900A2
:102B32002508A8000318A80A801FA02DA803831245
:102B420003132808AA002908840083172A1C831368
:102B5200200880002208023EA40023080318013E38
:102B6200003EA500240884008317251C831301302E
:102B72008007840A0318800A0800831603130713C8
:102B820087178312031398178316031318129816C4
:102B9200831203131816831603131815BF308312FA
:102BA2000313E5008030E4000030E3000030E2006F
:102BB2004130B1008030B0000030AF000030AE00D4
:102BC200831603132F0883120313B500831603130E
:102BD2002E0883120313B400831603132D088312E5
:102BE2000313B300831603132C0883120313B200DA
:102BF2000A128A15BE240A168A1183120313310897
:102C0200CB003008CA002F08C9002E08C80083165E
:102C120003132B0883120313CF00831603132A080E
:102C220083120313CE00831603132908831203139E
:102C3200CD0083160313280883120313CC000A1253
:102C42008A11D8250A168A11831203134B08E90048
:102C52004A08E8004908E7004808E6000A128A150F
:102C6200EC210A168A1183120313650883160313D3
:102C7200B30083120313640883160313B200831292
:102C82000313630883160313B1008312031362084C
:102C920083160313B000330883120313CB00831689
:102CA2000313320883120313CA0083160313310875
:102CB20083120313C900831603133008831203130C
:102CC200C8000A168A11F5220A168A118312031302
:102CD2004808831603139900080083120313A800FF
:102CE20028080319752E762E8A2EA31F792E7A2E86
:102CF2008A2E2009AA002109AB002209AC0023096F
:102D0200AD00AA0A0319AB0A0319AC0A0319AD0AEA
:102D1200922E2308AD002208AC002108AB00200847
:102D2200AA002308220421042004031D992E9A2EAE
:102D3200A32E0030A3000030A2000030A10000301A
:102D4200A000232F9630A900B12E0130A90701302F
:102D52000310AD0CAC0CAB0CAA0CFF3E031DA92E4C
:102D6200FE302D05031DB62EB72EA62ED12E013014
:102D7200A9070130AA07003003180130AB07003061
:102D820003180130AC07003003180130AD070130E1
:102D92000310AD0CAC0CAB0CAA0CFF3E031DC92EEC
:102DA200FF302D05031DD62ED72EB82EE32E01306F
:102DB200A9020130A4000310AA0DAB0DAC0DAD0D9C
:102DC200A40BDC2EAC1BE62EE72EED2E02302902E0
:102DD2000318EC2EED2ED82E2918F02EF12EF92EF6
:102DE200FF30AA05FF30AB057F30AC05FF30AD05E3
:102DF2000310A90C2908A400A501A601A7011830F7
:102E02000310A40DA50DA60DA70DFF3E031D012F56
:102E12002408AA042508AB042608AC042708AD043C
:102E220028080319152F162F1B2FA31F192F1A2F2E
:102E32001B2FAD172D08A3002C08A2002B08A10000
:102E42002A08A0000800013083120313C500C21B28
:102E52002B2F2D2F01302E2F0030C8007908C700EC
:102E62007808C60048080319372F382F4E2FFF3035
:102E7200C6070318C70AFF30C7074808031D422FB9
:102E8200432F482F2B30C3000030C4004C2F2D306D
:102E9200C3000030C4004308C8001F30C90000301E
:102EA200CA0083160317AF01AD2FFF30831203133D
:102EB200C9070318CA0AFF30CA074908903E8400AE
:102EC2000030A3000030A2000030A1000A30A000B0
:102ED2004208A7004108A6004008A5003F08A40038
:102EE2000A168A116B230A168A1183120313210808
:102EF200AC002008AB000A168A1521260A168A1190
:102F0200831203132B08303E83178000C501FF3064
:102F1200C6070318C70AFF30C7070030A3000030F6
:102F2200A2000030A1000A30A0004208A700410818
:102F3200A6004008A5003F08A4000A168A118524AD
:102F42000A168A11831203132308C2002208C10041
:102F52002108C0002008BF00831203134A08803AE8
:102F6200FF0080307F02031DB82F01304902031C8D
:102F7200BB2FBC2FDC2F83120313420841044004F1
:102F82003F04031DC52FC62F562F4508031DCA2F08
:102F9200CB2F562F4708803AFF0080307F02031D57
:102FA200D42F01304602031CD72FD82FDC2FFC1858
:102FB200DB2FDC2F562F8312031348080319E22F4D
:102FC200E32FEF2FFF30C9070318CA0AFF30CA07E1
:102FD2004908903E84004808831780003D08B500E8
:102FE2003E08B6004908903EB7004708B9004608B7
:0E2FF200B8000A168A11BC200A168A110800BF
:103C020064008001840A0406031900340406022EAB
:103C1200CF30831203139005901090118F018E0103
:103C22001014080083120313861620308312031324
:103C3200A000A00B1A2E00008312031386120800A4
:103C420083120313AC1B262E272E282E332E2B096C
:103C5200AD002C09AE00AD0A0319AE0A2D08AB0067
:103C62002E08AC000800FF30831603138500803055
:103C72009F004130831203139F0005308312031308
:103C8200A200A20B422E452E831203131F151F19E9
:103C92004B2E4C2E482E1E08A100831603131E081D
:103CA20083120313A0000800831203135A08DC00D6
:103CB200672E5808CB005908CC005C30CD005B0859
:103CC200CE000A128A1564200A168A15831203137B
:103CD2005C0884000A168A110A200A168A15003A1C
:103CE200031D742E752E5A2ED801D9010800FF30FB
:103CF20083160313850088309F00613083120313FB
:103D02009F00053083120313A200A20B862E892E78
:103D1200831203131F151F198F2E902E8C2E1E082F
:103D2200A400831603131E0883120313A30024089E
:103D3200A1002308A000080083120313B201B301FB
:103D42002E1CA42EA52EAB2E3008B2070318B30AE0
:103D52003108B30701300310B00DB10DFF3E031D52
:103D6200AC2E01300310AF0CAE0CFF3E031DB32E80
:103D72002E082F04031DBE2EBF2EA12E3308AF0026
:103D82003208AE000800DB2E2208FF002108840062
:103D92000A168A1100200A168A150A128A150320A9
:103DA2000A168A15013083120313A1070318A20A07
:103DB2000030A207831203132208FF0021088400A7
:103DC2000A168A1100200A168A15003A031DEA2EE5
:103DD200EB2EC52E080083120313A800A401A5012F
:103DE2002008A200A3012208A6002308A700281C7D
:103DF200FB2EFC2E022F2608A4070318A50A27086B
:103E0200A50701300310A60DA70DFF3E031D032FCA
:103E12000310A80C2808031D0F2F102FF82E2508B9
:103E2200A1002408A000080083120313B301B40107
:103E3200322F3208B000B1013008A0003108A100D1
:103E42002E08A2002F08A3000A168A111E250A16A0
:103E52008A15013083120313B3070318B40A003022
:103E6200B40733082D07B000300884008317000818
:103E7200B2003208031D3E2F3F2F1A2F0800831273
:103E82000313A300F03086052308A10004300310B9
:103E9200A10CFF3E031D482F21080F39860406128C
:103EA20006130A168A1513260A168A150730831274
:103EB2000313A2007C30A100A10B5D2FA20B5D2F8A
:103EC2000000F03083120313860523080F3986049D
:103ED200061206130A168A1513260A168A150730C1
:103EE20083120313A2007C30A100A10B762FA20B38
:103EF200762F000008008316031386018312031332
:103F020086011A3083120313A500F730A400A40B14
:103F1200882FA50B882F8D2F33300A168A1540273C
:103F22000A168A1532300A168A1540270A168A1589
:103F320028300A168A1540270A168A150C300A16E6
:103F42008A1540270A168A1506300A168A1540274E
:103F52000A168A1501300A168A1540270A168A158A
:103F620080300A168A1540270A168A150800003082
:103F720083120313AC000030AB000030AA00003003
:103F8200A900201CC52FC62FDD2F2408A90725084C
:103F920003110318013E0319CF2FAA0726080311A4
:103FA2000318013E0319D62FAB0727080311031884
:103FB200013E0319DD2FAC070130A8000310A40D48
:103FC200A50DA60DA70DA80BDF2F01300310A30C22
:103FD200A20CA10CA00CFF3E031DE72F2308220414
:103FE20021042004031DF62FF72FC22F2C08A30053
:0E3FF2002B08A2002A08A1002908A000080040
:02400E007A3FF7
:00000001FF
